{
  "_format": "hh-sol-artifact-1",
  "contractName": "VotoUniversitario",
  "sourceName": "contracts/VotoUniversitario.sol",
  "abi": [
    {
      "inputs": [],
      "stateMutability": "nonpayable",
      "type": "constructor"
    },
    {
      "anonymous": false,
      "inputs": [
        {
          "indexed": true,
          "internalType": "uint32",
          "name": "id",
          "type": "uint32"
        },
        {
          "indexed": false,
          "internalType": "bytes32",
          "name": "nombre",
          "type": "bytes32"
        }
      ],
      "name": "CandidatoRegistrado",
      "type": "event"
    },
    {
      "anonymous": false,
      "inputs": [],
      "name": "EleccionAbierta",
      "type": "event"
    },
    {
      "anonymous": false,
      "inputs": [],
      "name": "EleccionCerrada",
      "type": "event"
    },
    {
      "anonymous": false,
      "inputs": [
        {
          "indexed": true,
          "internalType": "address",
          "name": "votante",
          "type": "address"
        }
      ],
      "name": "VotanteRegistrado",
      "type": "event"
    },
    {
      "anonymous": false,
      "inputs": [
        {
          "indexed": true,
          "internalType": "address",
          "name": "votante",
          "type": "address"
        },
        {
          "indexed": true,
          "internalType": "uint32",
          "name": "candidatoId",
          "type": "uint32"
        }
      ],
      "name": "VotoEmitido",
      "type": "event"
    },
    {
      "inputs": [],
      "name": "abrirEleccion",
      "outputs": [],
      "stateMutability": "nonpayable",
      "type": "function"
    },
    {
      "inputs": [],
      "name": "administrador",
      "outputs": [
        {
          "internalType": "address",
          "name": "",
          "type": "address"
        }
      ],
      "stateMutability": "view",
      "type": "function"
    },
    {
      "inputs": [
        {
          "internalType": "uint32",
          "name": "",
          "type": "uint32"
        }
      ],
      "name": "candidatos",
      "outputs": [
        {
          "internalType": "uint32",
          "name": "id",
          "type": "uint32"
        },
        {
          "internalType": "bytes32",
          "name": "nombre",
          "type": "bytes32"
        },
        {
          "internalType": "uint32",
          "name": "votos",
          "type": "uint32"
        }
      ],
      "stateMutability": "view",
      "type": "function"
    },
    {
      "inputs": [],
      "name": "cerrarEleccion",
      "outputs": [],
      "stateMutability": "nonpayable",
      "type": "function"
    },
    {
      "inputs": [],
      "name": "eleccionAbierta",
      "outputs": [
        {
          "internalType": "bool",
          "name": "",
          "type": "bool"
        }
      ],
      "stateMutability": "view",
      "type": "function"
    },
    {
      "inputs": [
        {
          "internalType": "address",
          "name": "_votante",
          "type": "address"
        }
      ],
      "name": "esVotanteAutorizado",
      "outputs": [
        {
          "internalType": "bool",
          "name": "",
          "type": "bool"
        }
      ],
      "stateMutability": "view",
      "type": "function"
    },
    {
      "inputs": [],
      "name": "obtenerTodosLosCandidatos",
      "outputs": [
        {
          "components": [
            {
              "internalType": "uint32",
              "name": "id",
              "type": "uint32"
            },
            {
              "internalType": "bytes32",
              "name": "nombre",
              "type": "bytes32"
            },
            {
              "internalType": "uint32",
              "name": "votos",
              "type": "uint32"
            }
          ],
          "internalType": "struct VotoUniversitario.Candidato[]",
          "name": "",
          "type": "tuple[]"
        }
      ],
      "stateMutability": "view",
      "type": "function"
    },
    {
      "inputs": [
        {
          "internalType": "bytes32",
          "name": "_nombre",
          "type": "bytes32"
        }
      ],
      "name": "registrarCandidato",
      "outputs": [],
      "stateMutability": "nonpayable",
      "type": "function"
    },
    {
      "inputs": [
        {
          "internalType": "address",
          "name": "_votante",
          "type": "address"
        }
      ],
      "name": "registrarVotante",
      "outputs": [],
      "stateMutability": "nonpayable",
      "type": "function"
    },
    {
      "inputs": [
        {
          "internalType": "address[]",
          "name": "_votantes",
          "type": "address[]"
        }
      ],
      "name": "registrarVotantesEnLote",
      "outputs": [],
      "stateMutability": "nonpayable",
      "type": "function"
    },
    {
      "inputs": [],
      "name": "totalCandidatos",
      "outputs": [
        {
          "internalType": "uint32",
          "name": "",
          "type": "uint32"
        }
      ],
      "stateMutability": "view",
      "type": "function"
    },
    {
      "inputs": [],
      "name": "totalVotantesAutorizados",
      "outputs": [
        {
          "internalType": "uint32",
          "name": "",
          "type": "uint32"
        }
      ],
      "stateMutability": "view",
      "type": "function"
    },
    {
      "inputs": [
        {
          "internalType": "address",
          "name": "",
          "type": "address"
        }
      ],
      "name": "votanteAutorizado",
      "outputs": [
        {
          "internalType": "bool",
          "name": "",
          "type": "bool"
        }
      ],
      "stateMutability": "view",
      "type": "function"
    },
    {
      "inputs": [
        {
          "internalType": "uint32",
          "name": "_candidatoId",
          "type": "uint32"
        }
      ],
      "name": "votar",
      "outputs": [],
      "stateMutability": "nonpayable",
      "type": "function"
    },
    {
      "inputs": [
        {
          "internalType": "address",
          "name": "",
          "type": "address"
        }
      ],
      "name": "yaVoto",
      "outputs": [
        {
          "internalType": "bool",
          "name": "",
          "type": "bool"
        }
      ],
      "stateMutability": "view",
      "type": "function"
    }
  ],
  "bytecode": "0x608060405234801561001057600080fd5b50336000806101000a81548173ffffffffffffffffffffffffffffffffffffffff021916908373ffffffffffffffffffffffffffffffffffffffff16021790555060008060146101000a81548160ff02191690831515021790555060008060156101000a81548163ffffffff021916908363ffffffff16021790555060008060196101000a81548163ffffffff021916908363ffffffff160217905550611e36806100bc6000396000f3fe608060405234801561001057600080fd5b50600436106100f55760003560e01c80639876398411610097578063d02d6e8311610066578063d02d6e8314610262578063dac271581461027e578063f0b0bb281461029c578063f48313ba146102cc576100f5565b806398763984146101ee578063bc83abde1461020c578063c38518fe1461022a578063c94a51f714610246576100f5565b80636ff9fd2e116100d35780636ff9fd2e146101645780637062b97d1461018057806375bc832c1461019e57806395d54fdc146101d0576100f5565b806301e075da146100fa5780632cfd4fcc146101045780636d2bdab114610134575b600080fd5b6101026102d6565b005b61011e60048036038101906101199190611323565b6103fb565b60405161012b919061136b565b60405180910390f35b61014e60048036038101906101499190611323565b610451565b60405161015b919061136b565b60405180910390f35b61017e60048036038101906101799190611323565b610471565b005b6101886106da565b6040516101959190611395565b60405180910390f35b6101b860048036038101906101b391906113ec565b6106fe565b6040516101c793929190611441565b60405180910390f35b6101d8610748565b6040516101e5919061136b565b60405180910390f35b6101f661075b565b6040516102039190611587565b60405180910390f35b6102146108c3565b60405161022191906115a9565b60405180910390f35b610244600480360381019061023f9190611629565b6108d9565b005b610260600480360381019061025b91906113ec565b610b1d565b005b61027c600480360381019061027791906116a2565b610dfe565b005b61028661107a565b60405161029391906115a9565b60405180910390f35b6102b660048036038101906102b19190611323565b611090565b6040516102c3919061136b565b60405180910390f35b6102d46110b0565b005b60008054906101000a900473ffffffffffffffffffffffffffffffffffffffff1673ffffffffffffffffffffffffffffffffffffffff163373ffffffffffffffffffffffffffffffffffffffff1614610364576040517f08c379a000000000000000000000000000000000000000000000000000000000815260040161035b9061172c565b60405180910390fd5b600060149054906101000a900460ff166103b3576040517f08c379a00000000000000000000000000000000000000000000000000000000081526004016103aa90611798565b60405180910390fd5b60008060146101000a81548160ff0219169083151502179055507f6a438848238f9285693359e2842557b55d801edb3be08f883006b14a0802ddee60405160405180910390a1565b6000600360008373ffffffffffffffffffffffffffffffffffffffff1673ffffffffffffffffffffffffffffffffffffffff16815260200190815260200160002060009054906101000a900460ff169050919050565b60036020528060005260406000206000915054906101000a900460ff1681565b60008054906101000a900473ffffffffffffffffffffffffffffffffffffffff1673ffffffffffffffffffffffffffffffffffffffff163373ffffffffffffffffffffffffffffffffffffffff16146104ff576040517f08c379a00000000000000000000000000000000000000000000000000000000081526004016104f69061172c565b60405180910390fd5b600073ffffffffffffffffffffffffffffffffffffffff168173ffffffffffffffffffffffffffffffffffffffff160361056e576040517f08c379a000000000000000000000000000000000000000000000000000000000815260040161056590611804565b60405180910390fd5b600360008273ffffffffffffffffffffffffffffffffffffffff1673ffffffffffffffffffffffffffffffffffffffff16815260200190815260200160002060009054906101000a900460ff16156105fb576040517f08c379a00000000000000000000000000000000000000000000000000000000081526004016105f290611896565b60405180910390fd5b6001600360008373ffffffffffffffffffffffffffffffffffffffff1673ffffffffffffffffffffffffffffffffffffffff16815260200190815260200160002060006101000a81548160ff0219169083151502179055506000601981819054906101000a900463ffffffff1680929190610675906118e5565b91906101000a81548163ffffffff021916908363ffffffff160217905550508073ffffffffffffffffffffffffffffffffffffffff167f8a52574990fa664f5c7ef6bd2823da4e788d6c65e7c402d320f6782be8af81c160405160405180910390a250565b60008054906101000a900473ffffffffffffffffffffffffffffffffffffffff1681565b60016020528060005260406000206000915090508060000160009054906101000a900463ffffffff16908060010154908060020160009054906101000a900463ffffffff16905083565b600060149054906101000a900460ff1681565b606060008060159054906101000a900463ffffffff1663ffffffff1667ffffffffffffffff8111156107905761078f611911565b5b6040519080825280602002602001820160405280156107c957816020015b6107b661128b565b8152602001906001900390816107ae5790505b5090506000600190505b600060159054906101000a900463ffffffff1663ffffffff168163ffffffff16116108bb57600160008263ffffffff1663ffffffff1681526020019081526020016000206040518060600160405290816000820160009054906101000a900463ffffffff1663ffffffff1663ffffffff168152602001600182015481526020016002820160009054906101000a900463ffffffff1663ffffffff1663ffffffff1681525050826001836108869190611940565b63ffffffff168151811061089d5761089c611978565b5b602002602001018190525080806108b3906118e5565b9150506107d3565b508091505090565b600060159054906101000a900463ffffffff1681565b60008054906101000a900473ffffffffffffffffffffffffffffffffffffffff1673ffffffffffffffffffffffffffffffffffffffff163373ffffffffffffffffffffffffffffffffffffffff1614610967576040517f08c379a000000000000000000000000000000000000000000000000000000000815260040161095e9061172c565b60405180910390fd5b60005b82829050811015610b1857600083838381811061098a57610989611978565b5b905060200201602081019061099f9190611323565b9050600073ffffffffffffffffffffffffffffffffffffffff168173ffffffffffffffffffffffffffffffffffffffff1614158015610a285750600360008273ffffffffffffffffffffffffffffffffffffffff1673ffffffffffffffffffffffffffffffffffffffff16815260200190815260200160002060009054906101000a900460ff16155b15610b0a576001600360008373ffffffffffffffffffffffffffffffffffffffff1673ffffffffffffffffffffffffffffffffffffffff16815260200190815260200160002060006101000a81548160ff0219169083151502179055506000601981819054906101000a900463ffffffff1680929190610aa7906118e5565b91906101000a81548163ffffffff021916908363ffffffff160217905550508073ffffffffffffffffffffffffffffffffffffffff167f8a52574990fa664f5c7ef6bd2823da4e788d6c65e7c402d320f6782be8af81c160405160405180910390a25b50808060010191505061096a565b505050565b600060149054906101000a900460ff16610b6c576040517f08c379a0000000000000000000000000000000000000000000000000000000008152600401610b63906119f3565b60405180910390fd5b600360003373ffffffffffffffffffffffffffffffffffffffff1673ffffffffffffffffffffffffffffffffffffffff16815260200190815260200160002060009054906101000a900460ff16610bf8576040517f08c379a0000000000000000000000000000000000000000000000000000000008152600401610bef90611a85565b60405180910390fd5b600260003373ffffffffffffffffffffffffffffffffffffffff1673ffffffffffffffffffffffffffffffffffffffff16815260200190815260200160002060009054906101000a900460ff1615610c85576040517f08c379a0000000000000000000000000000000000000000000000000000000008152600401610c7c90611af1565b60405180910390fd5b60008163ffffffff16118015610cb95750600060159054906101000a900463ffffffff1663ffffffff168163ffffffff1611155b610cf8576040517f08c379a0000000000000000000000000000000000000000000000000000000008152600401610cef90611b5d565b60405180910390fd5b6001600260003373ffffffffffffffffffffffffffffffffffffffff1673ffffffffffffffffffffffffffffffffffffffff16815260200190815260200160002060006101000a81548160ff021916908315150217905550600160008263ffffffff1663ffffffff168152602001908152602001600020600201600081819054906101000a900463ffffffff1680929190610d92906118e5565b91906101000a81548163ffffffff021916908363ffffffff160217905550508063ffffffff163373ffffffffffffffffffffffffffffffffffffffff167fe20775585291800b0a10f25aa41f3a7d3ddb84aa8a80ff4cd98d149eba5cca8360405160405180910390a350565b60008054906101000a900473ffffffffffffffffffffffffffffffffffffffff1673ffffffffffffffffffffffffffffffffffffffff163373ffffffffffffffffffffffffffffffffffffffff1614610e8c576040517f08c379a0000000000000000000000000000000000000000000000000000000008152600401610e839061172c565b60405180910390fd5b600060149054906101000a900460ff1615610edc576040517f08c379a0000000000000000000000000000000000000000000000000000000008152600401610ed390611bef565b60405180910390fd5b6000801b8103610f21576040517f08c379a0000000000000000000000000000000000000000000000000000000008152600401610f1890611c5b565b60405180910390fd5b6000601581819054906101000a900463ffffffff1680929190610f43906118e5565b91906101000a81548163ffffffff021916908363ffffffff160217905550506040518060600160405280600060159054906101000a900463ffffffff1663ffffffff168152602001828152602001600063ffffffff16815250600160008060159054906101000a900463ffffffff1663ffffffff1663ffffffff16815260200190815260200160002060008201518160000160006101000a81548163ffffffff021916908363ffffffff1602179055506020820151816001015560408201518160020160006101000a81548163ffffffff021916908363ffffffff160217905550905050600060159054906101000a900463ffffffff1663ffffffff167fe7292cf3b25ed14b4bd37a4cc5b656889099af2482790e7f9375506c71b4d36c8260405161106f9190611c7b565b60405180910390a250565b600060199054906101000a900463ffffffff1681565b60026020528060005260406000206000915054906101000a900460ff1681565b60008054906101000a900473ffffffffffffffffffffffffffffffffffffffff1673ffffffffffffffffffffffffffffffffffffffff163373ffffffffffffffffffffffffffffffffffffffff161461113e576040517f08c379a00000000000000000000000000000000000000000000000000000000081526004016111359061172c565b60405180910390fd5b60008060159054906101000a900463ffffffff1663ffffffff1611611198576040517f08c379a000000000000000000000000000000000000000000000000000000000815260040161118f90611ce2565b60405180910390fd5b60008060199054906101000a900463ffffffff1663ffffffff16116111f2576040517f08c379a00000000000000000000000000000000000000000000000000000000081526004016111e990611d74565b60405180910390fd5b600060149054906101000a900460ff1615611242576040517f08c379a000000000000000000000000000000000000000000000000000000000815260040161123990611de0565b60405180910390fd5b6001600060146101000a81548160ff0219169083151502179055507f335474cbded0364be0e699fd916fbb2c3f3717b62c24f80bc800e1fa60406ac160405160405180910390a1565b6040518060600160405280600063ffffffff16815260200160008019168152602001600063ffffffff1681525090565b600080fd5b600080fd5b600073ffffffffffffffffffffffffffffffffffffffff82169050919050565b60006112f0826112c5565b9050919050565b611300816112e5565b811461130b57600080fd5b50565b60008135905061131d816112f7565b92915050565b600060208284031215611339576113386112bb565b5b60006113478482850161130e565b91505092915050565b60008115159050919050565b61136581611350565b82525050565b6000602082019050611380600083018461135c565b92915050565b61138f816112e5565b82525050565b60006020820190506113aa6000830184611386565b92915050565b600063ffffffff82169050919050565b6113c9816113b0565b81146113d457600080fd5b50565b6000813590506113e6816113c0565b92915050565b600060208284031215611402576114016112bb565b5b6000611410848285016113d7565b91505092915050565b611422816113b0565b82525050565b6000819050919050565b61143b81611428565b82525050565b60006060820190506114566000830186611419565b6114636020830185611432565b6114706040830184611419565b949350505050565b600081519050919050565b600082825260208201905092915050565b6000819050602082019050919050565b6114ad816113b0565b82525050565b6114bc81611428565b82525050565b6060820160008201516114d860008501826114a4565b5060208201516114eb60208501826114b3565b5060408201516114fe60408501826114a4565b50505050565b600061151083836114c2565b60608301905092915050565b6000602082019050919050565b600061153482611478565b61153e8185611483565b935061154983611494565b8060005b8381101561157a5781516115618882611504565b975061156c8361151c565b92505060018101905061154d565b5085935050505092915050565b600060208201905081810360008301526115a18184611529565b905092915050565b60006020820190506115be6000830184611419565b92915050565b600080fd5b600080fd5b600080fd5b60008083601f8401126115e9576115e86115c4565b5b8235905067ffffffffffffffff811115611606576116056115c9565b5b602083019150836020820283011115611622576116216115ce565b5b9250929050565b600080602083850312156116405761163f6112bb565b5b600083013567ffffffffffffffff81111561165e5761165d6112c0565b5b61166a858286016115d3565b92509250509250929050565b61167f81611428565b811461168a57600080fd5b50565b60008135905061169c81611676565b92915050565b6000602082840312156116b8576116b76112bb565b5b60006116c68482850161168d565b91505092915050565b600082825260208201905092915050565b7f4e6f206175746f72697a61646f3a20536f6c6f2061646d696e00000000000000600082015250565b60006117166019836116cf565b9150611721826116e0565b602082019050919050565b6000602082019050818103600083015261174581611709565b9050919050565b7f4c6120656c656363696f6e207961206573746120636572726164610000000000600082015250565b6000611782601b836116cf565b915061178d8261174c565b602082019050919050565b600060208201905081810360008301526117b181611775565b9050919050565b7f446972656363696f6e20696e76616c6964610000000000000000000000000000600082015250565b60006117ee6012836116cf565b91506117f9826117b8565b602082019050919050565b6000602082019050818103600083015261181d816117e1565b9050919050565b7f4573746120646972656363696f6e2079612065737461206175746f72697a616460008201527f6100000000000000000000000000000000000000000000000000000000000000602082015250565b60006118806021836116cf565b915061188b82611824565b604082019050919050565b600060208201905081810360008301526118af81611873565b9050919050565b7f4e487b7100000000000000000000000000000000000000000000000000000000600052601160045260246000fd5b60006118f0826113b0565b915063ffffffff8203611906576119056118b6565b5b600182019050919050565b7f4e487b7100000000000000000000000000000000000000000000000000000000600052604160045260246000fd5b600061194b826113b0565b9150611956836113b0565b9250828203905063ffffffff811115611972576119716118b6565b5b92915050565b7f4e487b7100000000000000000000000000000000000000000000000000000000600052603260045260246000fd5b7f4c6120656c656363696f6e206e6f206573746120616374697661000000000000600082015250565b60006119dd601a836116cf565b91506119e8826119a7565b602082019050919050565b60006020820190508181036000830152611a0c816119d0565b9050919050565b7f4e6f206175746f72697a61646f3a204e6f20657374617320656e20656c20706160008201527f64726f6e20656c6563746f72616c000000000000000000000000000000000000602082015250565b6000611a6f602e836116cf565b9150611a7a82611a13565b604082019050919050565b60006020820190508181036000830152611a9e81611a62565b9050919050565b7f59612068617320656d697469646f20747520766f746f00000000000000000000600082015250565b6000611adb6016836116cf565b9150611ae682611aa5565b602082019050919050565b60006020820190508181036000830152611b0a81611ace565b9050919050565b7f43616e64696461746f20696e76616c69646f0000000000000000000000000000600082015250565b6000611b476012836116cf565b9150611b5282611b11565b602082019050919050565b60006020820190508181036000830152611b7681611b3a565b9050919050565b7f456c656363696f6e20616269657274613a204e6f2073652061646d6974656e2060008201527f63616e64696461746f7300000000000000000000000000000000000000000000602082015250565b6000611bd9602a836116cf565b9150611be482611b7d565b604082019050919050565b60006020820190508181036000830152611c0881611bcc565b9050919050565b7f456c206e6f6d627265206e6f20707565646520657374617220766163696f0000600082015250565b6000611c45601e836116cf565b9150611c5082611c0f565b602082019050919050565b60006020820190508181036000830152611c7481611c38565b9050919050565b6000602082019050611c906000830184611432565b92915050565b7f4465626520686162657220616c206d656e6f7320756e2063616e64696461746f600082015250565b6000611ccc6020836116cf565b9150611cd782611c96565b602082019050919050565b60006020820190508181036000830152611cfb81611cbf565b9050919050565b7f4465626520686162657220616c206d656e6f7320756e20766f74616e7465206160008201527f75746f72697a61646f0000000000000000000000000000000000000000000000602082015250565b6000611d5e6029836116cf565b9150611d6982611d02565b604082019050919050565b60006020820190508181036000830152611d8d81611d51565b9050919050565b7f4c6120656c656363696f6e207961206573746120616269657274610000000000600082015250565b6000611dca601b836116cf565b9150611dd582611d94565b602082019050919050565b60006020820190508181036000830152611df981611dbd565b905091905056fea26469706673582212209eeb18428e5baefcfd7fdde7135d13810e3d0010f4f711d92ca73495094cd52164736f6c63430008180033",
  "linkReferences": {},
  "deployedLinkReferences": {}
}